:100000000C9444000C9461000C9461000C94610009
:100010000C9461000C9461000C9461000C946100DC
:100020000C9461000C9461000C9461000C946100CC
:100030000C9461000C9461000C9461000C946100BC
:100040000C946E000C9461000C9461000C9461009F
:100050000C9461000C9461000C9461000C9461009C
:100060000C9461000C9461005F01620165016801FC
:100070006B016E017101740177017A017D018601C6
:100080008F0198019B019E0111241FBECFEFD4E088
:10009000DEBFCDBF12E0A0E0B1E0E8E3F4E002C0D3
:1000A00005900D92AC31B107D9F722E0ACE1B2E096
:1000B00001C01D92AB32B207E1F70E94CC010C9453
:1000C0001A020C940000CF93C82F8A3019F48DE0E7
:1000D0000E9463008C2FCF910C94BE011F920F924F
:1000E0000FB60F9211242F933F934F935F936F930B
:1000F0007F938F939F93AF93BF93EF93FF930E9450
:100100001501FF91EF91BF91AF919F918F917F91D9
:100110006F915F914F913F912F910F900FBE0F9074
:100120001F9018958F929F92AF92BF92CF92DF92BD
:10013000EF92FF920F931F93CF93DF936B017C019C
:10014000A42E0E9450018DE297E00197F1F7000084
:10015000B12C4501880C991C880C991C00E010E01A
:10016000C0E0D0E004501109CA15DB054CF5C4010C
:10017000800F911FA701960104C0569547953795AA
:1001800027958A95D2F7DA01C9018F700E94AB01D9
:100190000E9452013FE64CE754E03150404050404D
:1001A000E1F700C000000E9450018FED98EF28E0B9
:1001B000815090402040E1F700C000002196D2CF4E
:1001C000DF91CF911F910F91FF90EF90DF90CF9033
:1001D000BF90AF909F908F90089583B199B1817037
:1001E00097FD826094FD846092FD8860089593B1CC
:1001F00080FB95F995B90895E1E6F0E080E8808309
:10020000108280E284B915B817B818B88FEF8AB990
:100210001BB880E0089583E884BD81E085BD16BCED
:1002200017BC18BC80936E00089580911F029091B6
:1002300020022091230230912402820F931F9F708D
:10024000909324028093230220911D0230911E027C
:100250004091210250912202240F351F3F703093AC
:10026000220220932102F90124E0F695E7952A95D0
:10027000E1F7E25FFE4F208143E0249F90011124CB
:100280003595279535952795FC0154E0F695E7952A
:100290005A95E1F7E25FFE4F8081820F87BD089596
:1002A00015BC089581E085BD089590E080319105E9
:1002B00008F050C0FC01EC5CFF4F0C94E7018FE5A7
:1002C00090E03EC086E590E01AC08FE590E017C050
:1002D00089E690E014C086E590E01AC08FE590E0D2
:1002E00017C089E690E014C086E590E01AC08FE55B
:1002F00090E017C089E690E014C084E790E0909306
:10030000200280931F0282E390E020C084E790E007
:100310009093200280931F0287E390E017C084E748
:1003200090E09093200280931F028DE390E00EC036
:1003300084E790E005C086E590E002C089E690E0A1
:100340009093200280931F0283E490E090931E021A
:1003500080931D0208950C9455011092C5008FE002
:100360008093C400E0ECF0E080818D7F808386E0A4
:100370008093C20088E18093C10008959091C000ED
:1003800095FFFCCF8093C60008958091C00087FF41
:10039000FCCF8091C60008950E94FC000E940B01D2
:1003A0000E94AD0180E091E09093280280932702A3
:1003B00078948EE092E00E94ED0148E06FE172E8EF
:1003C00080E292E90E9492000E94ED00FDCFEE0FC4
:1003D000FF1F0590F491E02D09940F931F93CF9385
:1003E000DF93E0912702F0912802238121FF1BC0B7
:1003F000EC0100E010E089916091270270912802E1
:10040000DB011896ED91FC911997882331F009953D
:10041000892B89F30FEF1FEFEECF8AE00995892B27
:1004200011F4C80102C08FEF9FEFDF91CF911F91B0
:080430000F910895F894FFCF2D
:1004380000000002000000006300000000004041CE
:1004480043444647494A4C4D4F50525355565859C4
:100458005B5C5D5F60616364656768696A6B6C6D4E
:100468006F7071727373747576777878797A7A7B2E
:100478007B7C7C7D7D7D7E7E7E7F7F7F7F7F7F7F97
:100488007F7F7F7F7E7E7E7D7D7D7C7C7B7B7A7A95
:100498007978787776757473737271706F6D6C6B29
:1004A8006A69686765646361605F5D5C5B5958563B
:1004B800555352504F4D4C4A494746444341403E9C
:1004C8003C3B393836353332302F2D2C2A29272614
:1004D800242322201F1E1C1B1A181716151413126A
:1004E800100F0E0D0C0C0B0A09080707060505046A
:1004F80004030302020201010100000000000000E1
:1005080000000000010101020202030304040505C2
:1005180006070708090A0B0C0C0D0E0F101213140E
:10052800151617181A1B1C1E1F20222324262729DC
:100538002A2C2D2F303233353638393B3C3E48652E
:0C0548006C6C6F2C20776F726C642100CB
:00000001FF
